{
  "abi": [
    {
      "inputs": [
        {
          "internalType": "uint256",
          "name": "id",
          "type": "uint256"
        }
      ],
      "stateMutability": "nonpayable",
      "type": "constructor"
    },
    {
      "anonymous": false,
      "inputs": [
        {
          "indexed": true,
          "internalType": "address",
          "name": "user",
          "type": "address"
        },
        {
          "indexed": false,
          "internalType": "string",
          "name": "name",
          "type": "string"
        }
      ],
      "name": "NameChanged",
      "type": "event"
    },
    {
      "inputs": [
        {
          "internalType": "string",
          "name": "name",
          "type": "string"
        }
      ],
      "name": "fails",
      "outputs": [],
      "stateMutability": "nonpayable",
      "type": "function"
    },
    {
      "inputs": [],
      "name": "getId",
      "outputs": [
        {
          "internalType": "uint256",
          "name": "",
          "type": "uint256"
        }
      ],
      "stateMutability": "view",
      "type": "function"
    },
    {
      "inputs": [
        {
          "internalType": "uint256",
          "name": "id",
          "type": "uint256"
        }
      ],
      "name": "postUpgrade",
      "outputs": [],
      "stateMutability": "nonpayable",
      "type": "function"
    },
    {
      "inputs": [
        {
          "internalType": "string",
          "name": "name",
          "type": "string"
        }
      ],
      "name": "setName",
      "outputs": [],
      "stateMutability": "nonpayable",
      "type": "function"
    }
  ],
  "address": "0x0B5E71CC26357C1e76BfE7b09d0277de4459d42b",
  "args": [
    2
  ],
  "solcInputHash": "0x8cb470055b94c3034fd08eb518bb474100460c0d59555561f6676f06c24dab8f",
  "bytecode": "0x608060405234801561001057600080fd5b506040516107e93803806107e98339818101604052602081101561003357600080fd5b5051610047816001600160e01b0361004d16565b50610100565b6000805160206107c9833981519152546001600160a01b038116610088576001600160a01b036000805160206107c98339815191525561009d565b336001600160a01b0382161461009d57600080fd5b816100ef576040805162461bcd60e51b815260206004820152601360248201527f7a65726f206964206e6f7420616c6c6f77656400000000000000000000000000604482015290519081900360640190fd5b6001546100fc5760018290555b5050565b6106ba8061010f6000396000f3fe608060405234801561001057600080fd5b506004361061004c5760003560e01c80635d1ca63114610051578063adab5b961461006b578063c47f0027146100dd578063dbceb1751461014d575b600080fd5b61005961016a565b60408051918252519081900360200190f35b6100db6004803603602081101561008157600080fd5b81019060208101813564010000000081111561009c57600080fd5b8201836020820111156100ae57600080fd5b803590602001918460018302840111640100000000831117156100d057600080fd5b509092509050610171565b005b6100db600480360360208110156100f357600080fd5b81019060208101813564010000000081111561010e57600080fd5b82018360208201111561012057600080fd5b8035906020019184600183028401116401000000008311171561014257600080fd5b5090925090506102c4565b6100db6004803603602081101561016357600080fd5b503561035a565b6001545b90565b6101e66040518060400160405280600e81526020017f6974206661696c733a202725732700000000000000000000000000000000000081525083838080601f01602080910402602001604051908101604052809392919081815260200183838082843760009201919091525061047292505050565b3373ffffffffffffffffffffffffffffffffffffffff167f3b0a43ccc1ccd1c76ebb1a8d998fdfe1ded3766582dbbbcdda83889170bec53d838360405180806020018281038252848482818152602001925080828437600083820152604051601f909101601f19169092018290039550909350505050a2604080517f08c379a000000000000000000000000000000000000000000000000000000000815260206004820152600560248201527f6661696c73000000000000000000000000000000000000000000000000000000604482015290519081900360640190fd5b3360009081526020819052604090206102de9083836105ce565b503373ffffffffffffffffffffffffffffffffffffffff167f3b0a43ccc1ccd1c76ebb1a8d998fdfe1ded3766582dbbbcdda83889170bec53d838360405180806020018281038252848482818152602001925080828437600083820152604051601f909101601f19169092018290039550909350505050a25050565b7fb53127684a568b3173ae13b9f8a6016e243e63b6e8ee1178d6a717850b5d61035473ffffffffffffffffffffffffffffffffffffffff81166103d35773ffffffffffffffffffffffffffffffffffffffff7fb53127684a568b3173ae13b9f8a6016e243e63b6e8ee1178d6a717850b5d6103556103f5565b3373ffffffffffffffffffffffffffffffffffffffff8216146103f557600080fd5b8161046157604080517f08c379a000000000000000000000000000000000000000000000000000000000815260206004820152601360248201527f7a65726f206964206e6f7420616c6c6f77656400000000000000000000000000604482015290519081900360640190fd5b60015461046e5760018290555b5050565b61046e8282604051602401808060200180602001838103835285818151815260200191508051906020019080838360005b838110156104bb5781810151838201526020016104a3565b50505050905090810190601f1680156104e85780820380516001836020036101000a031916815260200191505b50838103825284518152845160209182019186019080838360005b8381101561051b578181015183820152602001610503565b50505050905090810190601f1680156105485780820380516001836020036101000a031916815260200191505b5060408051601f198184030181529190526020810180517bffffffffffffffffffffffffffffffffffffffffffffffffffffffff167f4b5c42770000000000000000000000000000000000000000000000000000000017905294506105ad9350505050565b80516a636f6e736f6c652e6c6f67602083016000808483855afa5050505050565b828054600181600116156101000203166002900490600052602060002090601f016020900481019282601f1061062d578280017fffffffffffffffffffffffffffffffffffffffffffffffffffffffffffffff0082351617855561065a565b8280016001018555821561065a579182015b8281111561065a57823582559160200191906001019061063f565b5061066692915061066a565b5090565b61016e91905b80821115610666576000815560010161067056fea26469706673582212208fb33a4f28790daafc07c1424f41e1b3dd91c542553e246da48f599050e0bbbf64736f6c63430006050033b53127684a568b3173ae13b9f8a6016e243e63b6e8ee1178d6a717850b5d6103",
  "devdoc": {
    "methods": {}
  },
  "userdoc": {
    "methods": {}
  },
  "storageLayout": {
    "storage": [
      {
        "astId": 8205,
        "contract": "src/GobelinRegistry.sol:GobelinRegistry",
        "label": "_names",
        "offset": 0,
        "slot": "0",
        "type": "t_mapping(t_address,t_string_storage)"
      },
      {
        "astId": 8207,
        "contract": "src/GobelinRegistry.sol:GobelinRegistry",
        "label": "_id",
        "offset": 0,
        "slot": "1",
        "type": "t_uint256"
      }
    ],
    "types": {
      "t_address": {
        "encoding": "inplace",
        "label": "address",
        "numberOfBytes": "20"
      },
      "t_mapping(t_address,t_string_storage)": {
        "encoding": "mapping",
        "key": "t_address",
        "label": "mapping(address => string)",
        "numberOfBytes": "32",
        "value": "t_string_storage"
      },
      "t_string_storage": {
        "encoding": "bytes",
        "label": "string",
        "numberOfBytes": "32"
      },
      "t_uint256": {
        "encoding": "inplace",
        "label": "uint256",
        "numberOfBytes": "32"
      }
    }
  },
  "gasEstimates": {
    "creation": {
      "codeDepositCost": "344400",
      "executionCost": "infinite",
      "totalCost": "infinite"
    },
    "external": {
      "fails(string)": "infinite",
      "getId()": "977",
      "postUpgrade(uint256)": "41920",
      "setName(string)": "infinite"
    }
  }
}